:100000000C94EB010C94F9140C94D2140C9413027C
:100010000C9413020C9413020C9413020C9413020C
:100020000C9413020C9413020C9413020C941302FC
:100030000C9413020C9478150C9413020C94130274
:100040000C9488140C9413020C9446150C942015EF
:100050000C9413020C9413020C9413020C941302CC
:100060000C9413020C9413025031312D3120436F44
:100070006E74726F6C2064696D6D65727320706F41
:100080007220666F746F727265736973746F720039
:100090005031312D3120436F6E74726F6C20646962
:1000A0006D6D65727320706F7220706F74656E6312
:1000B000696F6D6574726F73005031302D3220435B
:1000C0006F6E74726F6C2064652050756572746118
:1000D00020476172616765005031302D3120436FD8
:1000E0006E74726F6C206465207065727369616EE6
:1000F0006173005030392053656C656363696F6EBE
:10010000616461202D2D3E2053656E736F7265739F
:1001100020416E616CF36769636F732028416C6CDA
:1001200029005030372053656C656363696F6E61D9
:100130006461202D2D3E2053656E736F72204D6FCC
:1001400076696D69656E746F202850495229005098
:100150003620494E544552525550544F5220536503
:100160006C656363696F6E61646F00503520494E42
:10017000544552525550544F522053656C65636339
:10018000696F6E61646F00503420434F4E4D55547B
:1001900041444F522053656C656363696F6E6164BF
:1001A0006F00503420494E544552525550544F52CE
:1001B0002053656C656363696F6E61646F005034D2
:1001C0002050554C5341444F5245532053656C6564
:1001D0006363696F6E61646F2000503320434F4E3C
:1001E0004D555441444F522053656C656363696FAC
:1001F0006E61646F00503120434F4E4D5554414461
:100200004F522053656C656363696F6E61646F0064
:10021000503120494E544552525550544F5220535C
:10022000656C656363696F6E61646F005031205067
:10023000554C5341444F5245532053656C6563639D
:10024000696F6E61646F20283A00202D2D3E20508A
:10025000756C7361646F00202D2D3E20536F6C749C
:1002600061646F004F4646004F4E00203A20496EB1
:10027000746572727570746F72202D2D3E20004F60
:100280004646004F4E00436F6E6D757461646F7229
:10029000202D2D3E20004445544543544F522044C8
:1002A0004520474153204D512D320050484F544F67
:1002B000205452414E534953544F5220284F7038C6
:1002C000303057534C290053454E534F522054451C
:1002D0004D50455241545552412028544D503336CB
:1002E000290050484F544F5245534953544F5200E0
:1002F000504F54454E4349D34D4554524F20320040
:10030000504F54454E4349D34D4554524F20310030
:100310004445544543544F5220444520464153459B
:1003200000504952202853656E736F722064652017
:100330004D6F76696D69656E746F290050756C73C9
:1003400061646F72204F70746F636F706C61646F63
:1003500000424F54D34E203200424F54D34E2031EE
:1003600000000000002300260029005031302063E7
:100370006F6E74726F6C205065727369616E617319
:100380000000000000240027002A000000000025D3
:100390000028002B000404040404040404020202E4
:1003A00002020203030303030301020408102040B6
:1003B000800102040810200102040810200000003F
:1003C0000800020100000304070000000000000014
:1003D00000007E17A71D11241FBECFEFD8E0DEBF9F
:1003E000CDBF11E0A0E0B1E0EAE4F2E402C0059084
:1003F0000D92AA39B107D9F726E0AAE9B1E001C008
:100400001D92A133B207E1F711E0CAEED1E004C0BA
:100410002197FE010E94E61FC93ED107C9F70E943D
:10042000B9190C9418210C9400008F929F92AF92EE
:10043000BF92CF92DF92EF92FF92CF93DF93EC01C6
:10044000E881F98161817281072E000C880B990B7C
:100450000E94D91E2FEF3FEF4FE95BE30E94651F1B
:1004600020E030E040E05FE30E94341E20E030E016
:1004700048EC52E40E94651F4B015C010E94A11EE2
:100480006B01072E000C880B990B0E94D91E9B0153
:10049000AC01C501B4010E94341E20E030E048ECFC
:1004A00052E40E94651F0E94A11E623371055CF038
:1004B0008FEFC81AD80AB601DD0C880B990B0E9481
:1004C000D91E4B015C018A8190E0880F991F0B8037
:1004D000DC81C02DC80FD91FC501B4010E94A11E27
:1004E00018826983DF91CF91FF90EF90DF90CF90DA
:1004F000BF90AF909F908F900895833081F028F443
:10050000813099F08230A9F008958730A9F08830C1
:10051000C9F08430B1F4809180008F7D03C0809158
:1005200080008F7780938000089584B58F7784BD95
:10053000089584B58F7DFBCF8091B0008F77809335
:10054000B00008958091B0008F7DF9CF1F93CF93B5
:10055000DF93282F30E0F901E354FC4F8491F90137
:10056000E755FC4FD491F901EB56FC4FC491CC23D5
:10057000A9F0162F81110E947D02EC2FF0E0EE0F02
:10058000FF1FE557FC4FA591B4918FB7F894EC91FC
:10059000111108C0D095DE23DC938FBFDF91CF917E
:1005A0001F910895DE2BF8CF3FB7F8948091ED01AD
:1005B0009091EE01A091EF01B091F00126B5A89BBA
:1005C00005C02F3F19F00196A11DB11D3FBFBA2FE5
:1005D000A92F982F8827BC01CD01620F711D811DA5
:1005E000911D42E0660F771F881F991F4A95D1F72A
:1005F00008958F929F92AF92BF92CF92DF92EF9227
:10060000FF924B015C010E94D4026B017C010E94AD
:10061000D4026C197D098E099F09683E73408105DB
:100620009105A8F321E0821A9108A108B10888EE8B
:10063000C80E83E0D81EE11CF11C81149104A104B2
:10064000B10429F7FF90EF90DF90CF90BF90AF906B
:100650009F908F9008950F931F93CF93DF938C01FA
:10066000C62F8091CE02823074F09091C0009064C9
:100670009093C00061E00E94A60261E070E080E01B
:1006800090E00E94F902902FF8012FEF3FEF8E2F9C
:10069000891B8C1788F48191282788E0A901417073
:1006A000552736952795452B21F041E0242740EA30
:1006B0003427815099F7EBCF322723273227F801CF
:1006C000EC0FF11D3083E1E0EC0FE00FF12FF11D95
:1006D0002083CE5F8091F1019091F201D0E0DC01A6
:1006E000ED91FC910280F381E02DAE01B8010995F6
:1006F0006AE070E080E090E00E94F9028091CE0212
:1007000082303CF09091C00096FFFCCF60E00E94E8
:10071000A602CE01DF91CF911F910F910895CF9244
:10072000DF92EF92FF920F931F93CF93DF93CDB79A
:10073000DEB7C054D1090FB6F894DEBF0FBECDBFEF
:100740009091CD0299838A8381E08B831C82DB01A7
:10075000AA0FBB1F6D01C20ED31ECB0130E0E3E038
:10076000F0E0460F572F511DBF016F5F7F4F841779
:10077000950788F5383061F4E1E0F0E0EC0FFD1FFB
:10078000E60FF71F10822B812F5F2B83FB0130E0D8
:10079000D601ED90FD906D0101E010E00C0F1D1FE2
:1007A0000E0F1F1F61E070E0EF2809F460E0032ED8
:1007B00001C0660F0A94EAF7EE24E394F12CEC0EE4
:1007C000FD1EEE0EFF1ED7012C91622BD8016C93FB
:1007D0003F5F0196C9CFCE0101960E942B03C05CFA
:1007E000DF4F0FB6F894DEBF0FBECDBFDF91CF91C4
:1007F0001F910F91FF90EF90DF90CF900895EF92AF
:10080000FF920F931F93CF93DF93CDB7DEB7C05402
:10081000D1090FB6F894DEBF0FBECDBF9091CD02C7
:1008200099838A83842F880F8B83CB01880F991F2C
:10083000280F391FDE0111967B0163E070E0CD01C6
:100840004E0D5F2D511D1296E416F50688F4F90140
:10085000108101812E5F3F4F11960C9311971296D4
:100860001C9312976E5F7F4FFFEFEF1AFF0AEBCFDB
:100870000E942B03C05CDF4F0FB6F894DEBF0FBEA3
:10088000CDBFDF91CF911F910F91FF90EF90089511
:100890002FB7F8946091E9017091EA018091EB0122
:1008A0009091EC012FBF08950895AF92BF92CF921F
:1008B000DF92EF92FF920F931F93CF93DF936C0120
:1008C0007B018B01040F151FEB015E01AE18BF0801
:1008D000C017D10759F06991D601ED91FC910190B3
:1008E000F081E02DC6010995892B79F7C501DF91CB
:1008F000CF911F910F91FF90EF90DF90CF90BF901D
:10090000AF900895FC01538D448D252F30E0842F46
:1009100090E0821B930B541710F0CF960895019727
:100920000895FC01918D828D981761F0A28DAE0F14
:10093000BF2FB11D5D968C91928D9F5F9F73928F9B
:1009400090E008958FEF9FEF0895FC01918D828DC7
:10095000981731F0828DE80FF11D858D90E0089594
:100960008FEF9FEF0895FC01918D228D892F90E0EC
:10097000805C9F4F821B91098F73992708958EEF9A
:1009800091E00E94B30421E0892B09F420E0822F3A
:10099000089580E090E0892B29F00E94BF04811126
:1009A0000C9400000895FC01A48DA80FB92FB11D6F
:1009B000A35ABF4F2C91848D90E001968F73992795
:1009C000848FA689B7892C93A089B1898C91837073
:1009D00080648C93938D848D981306C00288F3896C
:1009E000E02D80818F7D80830895EF92FF920F9399
:1009F0001F93CF93DF93EC0181E0888F9B8D8C8DCB
:100A000098131AC0E889F989808185FF15C09FB7BE
:100A1000F894EE89FF896083E889F9898081837081
:100A2000806480839FBF81E090E0DF91CF911F9130
:100A30000F91FF90EF900895F62E0B8D10E00F5F51
:100A40001F4F0F731127E02E8C8D8E110CC00FB627
:100A500007FCFACFE889F989808185FFF5CFCE01BF
:100A60000E94D304F1CFEB8DEC0FFD2FF11DE35A63
:100A7000FF4FF0829FB7F8940B8FEA89FB89808142
:100A80008062CFCF0F931F93CF93DF938C01D0E081
:100A9000C0E0F801EC0FFD1F6491662341F08EEF7A
:100AA00091E00E94F504892B11F02196F2CFCE013E
:100AB000DF91CF911F910F910895CF93DF93EC01B8
:100AC000888D8823B9F0AA89BB89E889F9898C9136
:100AD00085FD03C0808186FD0DC00FB607FCF7CFF2
:100AE0008C9185FFF2CF808185FFEDCFCE010E94F2
:100AF000D304E9CFDF91CF9108951F93CF93DF9374
:100B0000EC01162F88810E94A6021983DF91CF91F4
:100B10001F9108950F931F93CF93DF93FC012581BD
:100B2000222309F458C0EC0186819781009731F0A7
:100B3000019709F437C090E080E023C0208130E0C5
:100B4000F901E354FC4F8491F901E755FC4F0491FE
:100B5000F901EB56FC4F1491112369F381110E94A6
:100B60007D02E12FF0E0EE0FFF1FEF59FC4FA59142
:100B7000B491EC910E2331E020E009F430E0832FB2
:100B8000922F29813A812817390729F19A8389837D
:100B9000EC89FD893097F9F0CE01DF91CF911F915B
:100BA0000F91099480818E3008F08E508770806498
:100BB00080937C0080917A00806480937A00809199
:100BC0007A0086FDFCCF909178008091790089278A
:100BD00098278927D6CFDF91CF911F910F91089544
:100BE000CF93DF93EC01888199810E948A058A81E5
:100BF00090E0880F991FEB81FC81E80FF91FA88115
:100C0000B98111968D919C9112972081318128177D
:100C1000390771F091838083EB89FC89309741F02B
:100C200015968C91882321F0CE01DF91CF91099404
:100C3000DF91CF9108952091A9023091AA02232B30
:100C400059F5DC01ED91FC910190F081E02DA0813E
:100C5000B18111962D913C91129785859685892BAE
:100C600069F013968D919C918217930799F081E01A
:100C700090E09093AA028093A90208950784F089D6
:100C8000E02D0280F381E02D81E040815181421707
:100C9000530708F480E0089581E008958F929F92B1
:100CA000AF92BF92CF92DF92EF92FF921F93CF93BA
:100CB000DF93EC01162FE881F9810190F081E02D9E
:100CC0000780F085E02DC080D180E280F3800E9413
:100CD0004804E881F9810190F081E02D81809280C3
:100CE000A380B4809B01AC01281939094A095B092A
:100CF000A12F110FBB0B0E94FB1DC60ED71EE81EB5
:100D0000F91EA781B085CD92DD92ED92FC921397EA
:100D10000580F681E02DF7FE3CC01D921D921D92CC
:100D20001C9213972D913D914D915C91A4E6B0E0FA
:100D30000E94F01D2081318150E040E00E94D11DD1
:100D4000C22FCA01622F732F25E030E040E050E04F
:100D50000E94D11D63307105810591050CF0CB5FB8
:100D6000C61BD0E08091BF029091C002C817D9077E
:100D700021F0D093C002C093BF02DF91CF911F91A9
:100D8000FF90EF90DF90CF90BF90AF909F908F90AB
:100D90000895408151814C155D0520F670E060E0BA
:100DA0004D935D936D937C931397BCCFEF92FF921D
:100DB0000F931F93CF93DF9300D000D0CDB7DEB752
:100DC0008C0183EF91E09C838B83CE0103969A8301
:100DD00089830130110549F130F00230110571F1BC
:100DE0000330110559F41092F3018091FC019091A8
:100DF000FD018130910589F00297A9F01093FD0162
:100E00000093FC010F900F900F900F90DF91CF9106
:100E10001F910F91FF90EF9008956FEFCE01019613
:100E20000E944E06EBCF61E0F9CF8091F3016FEFA6
:100E3000811109C081E08093F30109C08091F30121
:100E40008823C1F361E0CE0101960E944E06EB803B
:100E5000FC800E944804F70161837283838394833A
:100E6000CDCF0F931F93CF93DF93EC010C811D81A6
:100E7000012B51F08C819D81FC01028113810E9424
:100E80008F201D830C83F4CFDF91CF911F910F91A1
:100E90000895CF93DF93EC0188519F4F0E94310753
:100EA000CE018E529F4F0E943107CE0184549F4F36
:100EB0000E943107CE018A559F4F0E943107CE0113
:100EC00080579F4F0E943107CE0186589F4F0E9446
:100ED0003107CE018C599F4F0E943107CE01825BB2
:100EE0009F4F0E943107CE01C8960E943107CE0164
:100EF00082960E943107CE010C96DF91CF910C941F
:100F00003107CF93DF93EC018EE291E099838883E0
:100F1000CE0184529E4F0E943107CE0189539E4FCD
:100F20000E943107CE018E549E4F0E943107CE01A0
:100F300083569E4F0E943107CE0188579E4F0E94D4
:100F40003107CE018D589E4F0E943107CE01825A43
:100F50009E4F0E943107CE01875B9E4F0E94310752
:100F6000CE018C5C9E4F0E943107CE01815E9E4F68
:100F70000E943107CE010296DF91CF910C94490770
:100F8000CF93DF93EC010E948107CE01DF91CF91D7
:100F90000C948F20FB0101900020E9F73197AF01FD
:100FA000461B570BDC01ED91FC910280F381E02D93
:100FB0000994CF93DF930E944205EC0162E371E054
:100FC0008EEF91E00E94CA078C0F9D1FDF91CF9199
:100FD00008950F931F93CF93DF93EC010E94CA07EC
:100FE0008C0162E371E0CE010E94CA07800F911F5D
:100FF000DF91CF911F910F9108950F931F93CF937E
:10100000DF938C01EB018EEF91E00E94E907F8017C
:1010100080819181009739F0BE01DF91CF911F91BE
:101020000F910C94E907DF91CF911F910F910895D3
:10103000DF92EF92FF920F931F93CF93DF938C0178
:10104000D62ED0E0C0E0D80112968D919C911397D6
:10105000C817D907ECF49C2F1496ED91FC91E08011
:10106000F18080E0309759F465E371E0C8010E9497
:10107000FD076D2DC7010E947D052196E4CF8917DC
:10108000C0F70280F381E02DE080F1808F5FF7CF21
:10109000DF91CF911F910F91FF90EF90DF90089516
:1010A0000F931F93CF93DF93EC012B813C818981B8
:1010B0009A8128173907A1F40091CC011091CD0134
:1010C00086E892E00E944205012BD1F481E090E095
:1010D0009093CD018093CC0183E892E00E94D907E0
:1010E00061E08091CC019091CD01892B09F460E001
:1010F000CE010C96DF91CF911F910F910C9418089F
:101100001092CD011092CC018FE792E0E7CFCF9300
:10111000DF93E091EB02F091EC02C081D18190E08D
:10112000309751F465E371E087EE92E00E94FD078D
:10113000CE01DF91CF9108959817D1F30280F3810A
:10114000E02DC081D1819F5FF7CFCF93DF93E091F6
:10115000FB02F091FC02C081D18190E0309751F404
:1011600065E371E087EF92E00E94FD07CE01DF9119
:10117000CF9108959817D1F30280F381E02DC081BB
:10118000D1819F5FF7CF0F931F93CF93DF93809110
:10119000F9029091FA02181619060CF056C010E0E8
:1011A00000E08091F9029091FA02081719070CF0FB
:1011B0004CC0802F0E94A508FC01C081D1812097DE
:1011C000D9F08A818823C1F04C815D816E817F8155
:1011D000453651056105710590F060E088810E94F7
:1011E000A6028C819D81AE81BF810196A11DB11D9A
:1011F0008C839D83AE83BF830F5F1F4FD2CF24812B
:1012000030E0220F331F85819681280F391FF901A5
:1012100080819181B0E0A0E084179507A607B70709
:1012200000F74B30510561057105D8F261E0888106
:101230000E94A6028C819D81AE81BF81888799879B
:10124000AA87BB8781E08B83CCCFDF91CF911F91A1
:101250000F910895CF93DF938091F9029091FA0254
:10126000181619061CF5D0E0C0E08091F9029091A3
:10127000FA02C817D907B4F48C2F0E94A508DC0124
:10128000ED91FC91309761F08281882349F01382BF
:101290001086118612861386148215821682178292
:1012A0002196E3CFDF91CF910C94C308DF91CF91CA
:1012B0000895CF93DF938AE299E09093020180939F
:1012C000010180916900836080936900E89AC09170
:1012D000F502D091F60284E090E00E94F31F909313
:1012E000F6028093F502892B31F468E671E08FEE07
:1012F00092E00E94FD07E091F502F091F602138260
:10130000128283EC98E0918380838091F302909124
:10131000F402892B09F041C0F093F402E093F30248
:101320008091F1029091F20201969093F2028093E3
:10133000F102C091FD02D091FE0284E090E00E9493
:10134000F31F9093FE028093FD02892B31F468E62F
:1013500071E087EF92E00E94FD07E091FD02F091BD
:10136000FE02138212828FEF94E09183808380913A
:10137000FB029091FC02892B99F4F093FC02E0931C
:10138000FB028091F9029091FA0201969093FA0281
:101390008093F902DF91CF910895FB83EA83C0CF58
:1013A000FB83EA83EECF0F931F93CF93DF93D0E0BD
:1013B000C0E08091F1029091F202C817D907ECF4D5
:1013C0009C2FE091F302F091F4020081118180E002
:1013D000309751F465E371E08FEE92E00E94FD07D3
:1013E000F80109952196E5CF8917D0F70280F3819E
:1013F000E02D008111818F5FF7CFDF91CF911F9199
:101400000F910895CF93DF93DC011496ED91FC9139
:10141000C081D181EF2B21F465E371E00E94FD07CB
:10142000CE01DF91CF910895EF92FF920F931F931A
:10143000CF93DF938C01EB01DC01ED91FC911197CF
:101440000190F081E02DE584F684E114F104D9F0F7
:101450000E944804F70160837183828393832097FD
:1014600059F0D801ED91FC910190F081E02D0584B7
:10147000F685E02DD783C683DF91CF911F910F9121
:10148000FF90EF9008951296ED91FC9180819181EB
:10149000FC01228133811216130674F70E94020A9E
:1014A000DC011D96ED90FC900E944804F7016083DA
:1014B0007183828393832097F9F2D8011296ED917C
:1014C000FC91808191810E94020ADC011D96ED91C0
:1014D000FC91D0CFCF93DF93DC011496ED91FC917A
:1014E000C081D181309741F465E371E00E94FD072E
:1014F000CE01DF91CF91089580E08617C9F3028075
:10150000F381E02DC081D1818F5FF7CFEF92FF9201
:101510000F931F93CF93DF938C017B01D0E0C0E04A
:10152000F80182819381C817D907DCF56C2FC801B7
:101530000E946A0AFC0192810380F481E02D82E01E
:10154000E816F10431F021E0E114F10469F420E03F
:101550000BC0A92FB0E0AA0FBB1FAE0FBF1F21E029
:101560004D915C91452B99F7892F90E0AC01440F88
:10157000551FE40FF51F30E040815181421753079A
:1015800071F031832083E0911704F09118043097B3
:1015900031F0008CF18DE02D309709F009952196FE
:1015A000BFCFDF91CF911F910F91FF90EF900895E2
:1015B000CF93DF93EC01A881B981EF85F889028090
:1015C000F381E02D11964D915C912081318124179A
:1015D000350738F061E070E00596DF91CF910C940B
:1015E000860ADF91CF910895DC01ED91FC91438152
:1015F0005481218132814217530729F462E070E05F
:1016000005960C94860A08950F931F93CF93DF934A
:10161000EC01E881F981238134818181928128174D
:101620003907D1F00D851E850E944804F8016083BA
:10163000718382839383ED85FE858085811136C019
:1016400081E0808761E070E0CE010596DF91CF9167
:101650001F910F910C94860A0E944804ED85FE8527
:101660000081118122813381AB01BC01401B510BF0
:10167000620B730BA681B7810D90BC91A02D2481C4
:101680003581A29FC001A39F900DB29F900D1124A0
:10169000B0E0A0E0481759076A077B0738F080855B
:1016A000882321F0108670E060E0CECFDF91CF91EB
:1016B0001F910F9108956F927F928F929F92AF9298
:1016C000BF92CF92DF92EF92FF920F931F93CF932F
:1016D000DF938C01D0E0C0E06C0165E0C60ED11C48
:1016E000F80187819085C817D9070CF066C06C2F68
:1016F000C6010E946A0AF801A081B181E784F088DE
:10170000F70122813381F9014081518111966D9158
:101710007C9112976417750720F412965C934E9390
:101720001197F70160807180F3014081518111961A
:101730006D917C9112974617570720F412965C938F
:101740004E931197F90180809180B12CA12CFC015E
:10175000E280F12CEE0CFF1C83819481E80EF91ECF
:1017600011962D913C91032E000C440B550B28191A
:1017700039094A095B09A4E6B0E00E94F01DF301B3
:101780002081318150E040E0281939094A095B097C
:101790000E94D11DF70180819181821B930B181645
:1017A000190624F40A972CF421969ACF873F9F4F6D
:1017B000DCF7F70131832083F7CFDF91CF911F91C1
:1017C0000F91FF90EF90DF90CF90BF90AF909F90E0
:1017D0008F907F906F9008958F929F92AF92BF925B
:1017E000CF92DF92EF92FF920F931F93CF93DF93ED
:1017F0007C01D0E0C0E06C0125E0C20ED11C882441
:101800008A9493E0992EA12CB12CD70117968D9133
:101810009C91C817D9078CF56C2FC6010E946A0AE3
:10182000D701ED91FC91A181B281A115E4E0BE0741
:1018300020F5FC01028110E0000F111F83819481CB
:10184000080F191F24E630E00E94EC1FA501940147
:101850000E94D11DD8018D919C91821B930B18166B
:10186000190624F40A972CF42196CFCF873F9F4F77
:10187000DCF7F80131832083F7CFDF91CF911F91FF
:101880000F91FF90EF90DF90CF90BF90AF909F901F
:101890008F900895CF93DF93EC01E881F9818085E3
:1018A00091851816190694F18F81988518161906D6
:1018B000BCF560E0CE0105960E946A0A009781F1AE
:1018C000FC01228130E0220F331F83819481280F95
:1018D000391FF90180819181892B29F5A881B9816E
:1018E000EF85F8890190F081E02D11962D913C91C2
:1018F00080819181281739075CF170E060E0CE01AA
:1019000005960E94860A81E090E006C0813091052C
:1019100051F08230910511F3E881F9819187808738
:10192000DF91CF910895A881B981EF85F889028070
:10193000F381E02D11962D913C9180819181821748
:1019400093070CF361E070E0CE0105960E94860AD1
:1019500082E090E0E1CF0F931F93CF93DF93DC0100
:10196000ED91FC91438154812181328142175307CB
:1019700029F5EC01259660E0CE010E946A0AFC017F
:101980000381148160E0CE010E946A0ADC01129694
:101990008C9190E0880F991F800F911F61E070E09B
:1019A000FC0180819181892B11F070E060E0CE0113
:1019B000DF91CF911F910F910C94860ADF91CF9107
:1019C0001F910F9108950F931F93CF93DF938C0175
:1019D000C091ED02D091EE0284E090E00E94F31FEE
:1019E0009093EE028093ED02892B31F468E671E06A
:1019F00087EE92E00E94FD07E091ED02F091EE0289
:101A000013821282118300838091EB029091EC0289
:101A1000892B91F4F093EC02E093EB028091E902C0
:101A20009091EA0201969093EA028093E902DF9195
:101A3000CF911F910F910895FB83EA83EFCFCF934E
:101A4000DF938091EB029091EC02009799F0FC01FA
:101A5000C281D3810E948F20D093EC02C093EB020D
:101A60008091E9029091EA0201979093EA028093B3
:101A7000E902E7CF81E0DF91CF910895EF92FF92E5
:101A80000F931F93CF93DF93EC017B010E811F8196
:101A900084E090E00E94F31F9F838E83892B29F4BA
:101AA00068E671E0CE010E94FD07EE81FF8113829E
:101AB0001282F182E0828C819D81892B71F4FD83F9
:101AC000EC838A819B8101969B838A83DF91CF91EE
:101AD0001F910F91FF90EF900895D8011396FC93FA
:101AE000EE931297EECFCF93DF93CCEEDBE0D09363
:101AF0008104C093800461E075E082E794E00E9475
:101B00003E0DD0939604C09395046DE075E087E890
:101B100094E00E943E0DE1E8F0E080E180831092C5
:101B2000800080E293E0909387008093860081E1BB
:101B3000808383ED99E09093CF018093CE0181E083
:101B400080936F00DF91CF910C9459090F931F93ED
:101B5000CF93DF93EC018C819D81009769F0FC01AC
:101B6000028113810E948F201D830C838A819B81B7
:101B700001979B838A83EFCF81E0DF91CF911F9103
:101B80000F910895CF93DF93C4EFDAE0D0932D0443
:101B9000C0932C048EE194E00E94A60D6BEE74E0DD
:101BA0008EE194E00E943E0DD0934204C093410424
:101BB00083E394E00E94A60D60EF74E083E394E079
:101BC0000E943E0DD0935704C093560488E494E0DD
:101BD000DF91CF910C94A60DEF92FF920F931F937C
:101BE000CF93DF93EC017B010E811F8184E090E0B5
:101BF0000E94F31F9F838E83892B29F468E671E08E
:101C0000CE010E94FD07EE81FF8113821282F182D4
:101C1000E0828C819D81892B71F4FD83EC838A8124
:101C20009B8101969B838A83DF91CF911F910F91B6
:101C3000FF90EF900895D8011396FC93EE931297BE
:101C4000EECF0F931F93CF93DF93EC018C819D8197
:101C5000009769F0FC01028113810E948F201D838F
:101C60000C838A819B8101979B838A83EFCF81E0DC
:101C7000DF91CF911F910F910895CF93DF93EC01E6
:101C80002B813C8189819A8128173907C9F46A859B
:101C90007B856115710521F08EEF91E00E94CA07E6
:101CA0008BE692E00E94420588859985892BA1F4F4
:101CB00081E090E09987888788E692E00E94D907C2
:101CC00061E088859985892B09F460E0CE010C9646
:101CD000DF91CF910C9418081986188684E692E05B
:101CE000EDCFCF93DF93EC016A857B85611571059C
:101CF00021F08EEF91E00E94CA072B813C818981FF
:101D00009A812817390759F487E592E00E94D9078C
:101D100060E0CE010C96DF91CF910C9418088AE414
:101D200092E00E94D90761E0F4CF1F93CF93DF9335
:101D3000EC01162F0E94BB1D181739F0612FCE0140
:101D4000DF91CF911F910C94C31DDF91CF911F9113
:101D50000895CF93DF938230910509F47DC340F459
:101D6000009789F1019709F469C3DF91CF91089534
:101D70008430910509F486C308F479C30597A9F75F
:101D80008091E0019091E10199270E94D60680910F
:101D9000E0019091E10199278130910509F47DC31B
:101DA00030F08230910509F481C30397F1F660E0C9
:101DB00087EF93E00E947D0560E089EF93E0DF917B
:101DC000CF910C947D056091D60190E080E00E9457
:101DD000950E8091D601843509F444C108F054C0B1
:101DE000823309F4C7C020F5823109F490C08331F1
:101DF00009F4B9C0813109F0B8CF8CE292E00E94B9
:101E0000D907C1E7DEE0D0932C05C0932B0583E210
:101E100095E00E94210ED0934205C093410589E3CD
:101E200095E00E94210ED0935805C093570595C0A8
:101E3000823409F4D1C0833409F4D5C0813409F067
:101E400094CF8EEB91E00E94D907C1E7DEE0D093FA
:101E50002C05C0932B0583E295E00E94210E69E0DA
:101E600076E083E295E00E94EC0DD0934205C093AA
:101E7000410589E395E00E94210E6BE076E089E35D
:101E800095E00E94EC0DCFCF813A09F4EAC160F4ED
:101E9000803709F4EFC0803909F45EC1823609F059
:101EA00064CF8FE491E0E0C0833A09F4BFC208F444
:101EB00011C2843A09F059CF88E690E00E94D90710
:101EC0008BE59BE09093AB048093AA0461E075E0FE
:101ED0008CE994E00E943E0D80E180938100109295
:101EE000800080E293E0909387008093860081E1F8
:101EF0008093810083ED99E09093CF018093CE0190
:101F000081E080936F00DF91CF910C94590980E1BB
:101F100092E00E94D907CDE3DEE0D0932C05C09378
:101F20002B051092200510921F0583E295E00E9478
:101F3000210ED0934205C0934105109236051092B0
:101F4000350589E395E00E94210ED0935805C09392
:101F5000570510924C0510924B058FE495E0DF91E8
:101F6000CF910C94210E85EF91E00E94D907C0E536
:101F7000D8E049CF8AED91E00E94D907C0E5D8E0CA
:101F8000D0932C05C0932B0583E295E00E94210E8F
:101F900069E076E083E295E00E94EC0DD093420583
:101FA000C093410589E395E00E94210E69E076E047
:101FB00089E395E00E94EC0DD0935805C093570536
:101FC0008FE495E00E94210E69E076E08FE495E0D1
:101FD000DF91CF910C94EC0D82EA91E00E94D90739
:101FE000CDE3DEE034CF87E891E00E94D907C0E579
:101FF000D8E0D0932C05C0932B0583E295E00E9496
:10200000210E69E076E083E295E00E94EC0D6BE042
:1020100076E083E295E00E94EC0DD0934205C093F8
:10202000410589E395E00E94210E69E076E089E3AD
:1020300095E00E94EC0D6BE076E089E395E00E946C
:10204000EC0DD0935805C09357058FE495E00E949E
:10205000210E69E076E08FE495E00E94EC0D6BE0E4
:1020600076E0B4CF8BE691E00E94D907DF91CF9163
:102070000C94C20D82E291E00E94D907E0915804CD
:10208000F091590481E0858381E090E09093A00273
:1020900080939F028EE194E00E94A60D83E394E07A
:1020A0000E94A60D88E494E00E94A60D8DE594E0C0
:1020B0000E94A60D1092A20188EE93E090939F01DA
:1020C00080939E010E94480460939A0170939B0143
:1020D00080939C0190939D0188ED91E09093A101E4
:1020E0008093A00184E09BE090936C0480936B0448
:1020F0008AE991E090936604809365046BEE74E046
:102100008DE594E00E943E0DCBEADCE0D0932D04F7
:10211000C0932C0460EF74E08EE194E00E943E0DC9
:10212000D0934204C093410460EF74E083E394E0F1
:102130000E943E0DD0935704C093560460EF74E0A4
:1021400088E494E00E943E0D0E941F0D88E594E013
:10215000DF91CF910C94E30C83EF90E00E94D907BC
:102160000E941F0DE0915804F0915904158243819B
:1021700054815283418380915A0490E0880F991FC3
:1021800020915B0430915C04820F931FFC0151830A
:1021900040838EE194E00E94A60D83E394E00E94C8
:1021A000A60D88E494E00E94A60D8DE594E00E94BF
:1021B000A60D8AED91E09093A8018093A7018CED84
:1021C00091E09093AA018093A90187EA91E090930E
:1021D000A7048093A6048AE49CE09093AB048093C8
:1021E000AA0460EF74E08CE994E00E943E0D8EED4D
:1021F00091E09093A6018093A50183EA91E09093EA
:10220000D1048093D00488ED9AE09093D504809314
:10221000D4046BEE74E086EC94E00E943E0DCBEAB1
:10222000DCE0D0932D04C0932C046BEE74E08EE1BF
:1022300094E00E943E0DD0934204C09341046BEEA3
:1022400074E083E394E00E943E0DD0935704C09362
:1022500056046BEE74E088E494E0DF91CF910C9427
:102260003E0D88ED90E00E94D9071092F3018BE0BB
:1022700091E09093F9018093F8018BEA91E09093BB
:10228000FB018093FA010E941F0D8EE194E00E94F1
:10229000A60D83E394E00E94A60D88E494E00E94DA
:1022A000A60D8DE594E00E94A60DCDE3D4E1D09378
:1022B0002D04C0932C0465EF74E08EE194E00E943D
:1022C0003E0DD0934204C09341046AEF74E083E36F
:1022D00094E0C3CF89EB90E00E94D9078091BC01C4
:1022E000811113C01092C7011092C6011092C9014A
:1022F0001092C8011092CB011092CA011092C50130
:102300001092C40181E08093BC011092BB0188EE61
:1023100093E09093B8018093B7010E9448046093C2
:10232000B3017093B4018093B5019093B6011092FC
:10233000F3018BE091E09093F9018093F8018FEA2B
:1023400091E09093FB018093FA010E941F0D8EE1B2
:1023500094E00E94A60D83E394E00E94A60D88E419
:1023600094E00E94A60D8DE594E00E94A60D1092C7
:10237000420410924104C091CA01D091CB0184E083
:1023800090E00E94F31F9093CB018093CA01892BA8
:1023900031F468E671E084EC91E00E94FD07E09181
:1023A000CA01F091CB011382128289E194E09183FA
:1023B00080838091C8019091C901892BA1F5F09388
:1023C000C901E093C8018091C6019091C7010196AF
:1023D0009093C7018093C60188E592E190932D0404
:1023E00080932C0423EB31E03093270420932604C0
:1023F000E091D004F091D1042EED31E033832283BB
:102400001092CF041092CE049093D5048093D404FC
:1024100084EC91E09093D3048093D2040E941F0D2A
:1024200089E194E095CEFB83EA83CDCF80E990E00B
:102430000E94D907DF91CF910C94730D6091D9015F
:1024400082E090E00E94950E6091D80183E090E0D8
:10245000DF91CF910C94950E6091DB0185E090E0C7
:102460000E94950E6091DA0186E090E0F1CF6091D4
:10247000DD0187E090E00E94950E6091DC0188E02C
:1024800090E0E6CF6091DF018AE090E00E94950E37
:102490006091DE018BE090E0DBCF60E089EF93E0BC
:1024A0000E947D0561E087EF93E089CC61E0F6CF83
:1024B000CF92DF92EF92FF920F931F93CF93DF9310
:1024C000CDB7DEB72A970FB6F894DEBF0FBECDBFEB
:1024D0009A8789870091E0011091E1011127FC01A1
:1024E000818992899E838D83CE01099698878F83F7
:1024F0009A83898304979C838B8390910001933402
:1025000009F484C020F5913409F449C0923409F4E7
:1025100069C08091E0019091E1018017910741F03D
:102520001093E1010093E00185E090E00E94A90E84
:102530002A960FB6F894DEBF0FBECDBFDF91CF91C4
:102540001F910F91FF90EF90DF90CF9008959434FA
:1025500009F498C09534E9F685859685892BC9F2EA
:102560000E944804E985FA850584F685E02DC0803F
:10257000D180E280F380AB01BC014C195D096E098A
:102580007F090680F781E02D80819181B0E0A0E095
:1025900084179507A607B70708F0BBCF1DC0858530
:1025A0009685892B09F4B5CF828190E0880F991F19
:1025B00023813481820F931FFC0180819181892BBB
:1025C00039F48091A9029091AA02892B09F4A1CF34
:1025D0001092AA021092A90282E48093000102E004
:1025E00010E097CF8091BF029091C0028436910590
:1025F00008F48FCF83E4809300016FE071E0CE0197
:1026000001960E94140A10E000E083CFCE010796E5
:102610000E941B06882359F01092AA021092A90268
:1026200070E060E0CE0101960E94140A72CFE98545
:10263000FA8585859685892B09F46BCF0E9448041D
:10264000E985FA850584F685E02DC080D180E28099
:10265000F380AB01BC014C195D096E097F0906804E
:10266000F781E02D80819181B0E0A0E0841795078B
:10267000A607B70708F04DCF84E48093000101E07E
:1026800010E047CFCE0107960E941B06882351F029
:102690001092AA021092A90285E4809300016DE0D5
:1026A00071E0ADCF8091BF029091C002892B09F0FB
:1026B00030CF81E480930001A6CF6091E00170915A
:1026C000E101CB0199272091F70430E0220F331F5D
:1026D0004091F8045091F904240F351FF90140810D
:1026E00051812091FC0430E0220F331FE091FD0462
:1026F000F091FE04E20FF31F2081318181309105BA
:1027000011F188F082309105B9F08330910529F1FB
:102710006817790761F19093E1018093E00185E00A
:1027200090E00C94A90E452B11F082E090E0232B51
:1027300079F381E090E0ECCF452B51F7232B89F022
:1027400083E090E0E5CF452B79F451E040E0232B86
:1027500009F450E0852F942FDBCF452BC9F6232BAE
:10276000B9F690E080E0D7CF232B91F6E9CF08951A
:102770008730910508F080C0FC01EF53FC4E0C94AB
:10278000E61FC813D413DF13FE131C143A143A14B3
:1027900061E080919B0290919C02892B09F460E09A
:1027A00083EF93E00C947D0561E080919D02909110
:1027B0009E02892B09F460E085EF93E0F3CF8091CE
:1027C0009F029091A002E0915804F091590421E0F9
:1027D000009709F420E02583892B21F483819481DB
:1027E0009283818361E080919F029091A002892B66
:1027F00009F460E081E090E00C94950E8091A102D4
:102800009091A202E0919704F091980421E0009742
:1028100009F420E02583892B21F48381948192831C
:10282000818361E08091A1029091A202892B09F439
:1028300060E084E090E0E0CF8091A3029091A40258
:10284000E091C104F091C20421E0009709F420E076
:102850002583892B21F4838194819283818361E094
:102860008091A3029091A402892B09F460E089E091
:1028700090E0C2CF0C945D130895BF92CF92DF9287
:10288000EF92FF920F931F93CF93DF936C01D0E0F1
:10289000C0E07C0185E0E80EF11CD60117968D9111
:1028A0009C911897C817D90734F5ED91FC91BB247A
:1028B000B39421813281838194812817390709F4E7
:1028C000B12C6C2FC7010E946A0AFC01038114819C
:1028D0006C2FC7010E946A0ADC0112968C9190E06D
:1028E000880F991F800F911F2B2D30E0FC01318341
:1028F00020832196D2CFDF91CF911F910F91FF902E
:10290000EF90DF90CF90BF900C945D130C94BB1DA3
:102910001F920F920FB60F9211242F933F938F9314
:102920009F93AF93BF938091E9019091EA01A091A9
:10293000EB01B091EC013091E80123E0230F2D373A
:1029400058F50196A11DB11D2093E8018093E9017E
:102950009093EA01A093EB01B093EC018091ED011B
:102960009091EE01A091EF01B091F0010196A11DAF
:10297000B11D8093ED019093EE01A093EF01B09310
:10298000F001BF91AF919F918F913F912F910F9047
:102990000FBE0F901F90189526E8230F0296A11DD9
:1029A000B11DD2CF1F920F920FB60F9211242F9309
:1029B0003F934F935F936F937F938F939F93AF93C7
:1029C000BF93EF93FF93E0910301F0910401099508
:1029D000FF91EF91BF91AF919F918F917F916F91F7
:1029E0005F914F913F912F910F900FBE0F901F90CD
:1029F00018951F920F920FB60F9211242F933F93A9
:102A00004F935F936F937F938F939F93AF93BF93F6
:102A1000EF93FF93E0910101F09102010995FF917D
:102A2000EF91BF91AF919F918F917F916F915F9146
:102A30004F913F912F910F900FBE0F901F901895BF
:102A40001F920F920FB60F9211242F933F934F9323
:102A50005F936F937F938F939F93AF93BF93EF9306
:102A6000FF938EEF91E00E94D304FF91EF91BF910D
:102A7000AF919F918F917F916F915F914F913F9116
:102A80002F910F900FBE0F901F9018951F920F92CD
:102A90000FB60F9211242F938F939F93EF93FF9371
:102AA000E0910E02F0910F028081E0911402F0910A
:102AB000150282FD1BC09081809117028F5F8F737A
:102AC00020911802821741F0E0911702F0E0E250E5
:102AD000FE4F958F80931702FF91EF919F918F91F9
:102AE0002F910F900FBE0F901F9018958081F4CFFB
:102AF0001F920F920FB60F9211242F933F934F9373
:102B00005F936F937F938F939F93AF93BF93EF9355
:102B1000FF93E091CE01F091CF010995FF91EF91E4
:102B2000BF91AF919F918F917F916F915F914F91E5
:102B30003F912F910F900FBE0F901F901895CF933C
:102B4000DF9390E0FC01E755FC4F24918B569C4F9E
:102B5000FC0184918823D1F090E0880F991FFC013B
:102B6000EF57FC4FA591B491FC01E557FC4FC5917F
:102B7000D49161110EC09FB7F8948C91E22FE0952B
:102B80008E238C932881E223E8839FBFDF91CF912E
:102B900008958FB7F894EC91E22BEC938FBFF6CFAA
:102BA000EF92FF921F93CF93DF93EC011F861E8657
:102BB000198A188A1B8A1A8A1D861C861DA21CA2C5
:102BC0001FA21EA219A618A61BA21AA21BAE1AAEFD
:102BD0001DAE1CAE1FAE1EAE19AE18AEFC01E25B00
:102BE000FF4F13821282158214821782168211827D
:102BF00010827696138212821582148217821682B0
:102C000011821082769613821282158214821782A4
:102C10001682118210827696138212821582148295
:102C20001782168211821082769613821282158282
:102C30001482178216821182108276961382128273
:102C40001582148217821682118210827696138260
:102C50001282158214821782168211821082769651
:102C600013821282158214821782168211821082B8
:102C700083E088831A8219821C821B8211E01D83E3
:102C80001F821E8289E593E09B878A871D8A1C8AA2
:102C900060E083E00E949F158AE08E8B188E1F8A69
:102CA0001A8E198E1B8F1D8E1C8E81E593E099A3C1
:102CB00088A31BA61AA660E08AE00E949F158BE0FD
:102CC0008CA7EE24E394F12CFEA6EDA6F8AAEFA6BD
:102CD00019AB1BAA1AAA8CE393E09FAB8EABFE0143
:102CE000E05CFF4F1182108260E08BE00E949F1534
:102CF000FE01EE5BFF4F8DE08083359610833196A9
:102D000011821082349681E293E091838083399717
:102D10001182108232961182108260E08DE00E9452
:102D20009F15FE01E85AFF4F82E08083359610839D
:102D3000319611821082349680E193E091838083F2
:102D40003A96118210827397118210823296118204
:102D5000108260E082E00E949F15FE01E055FF4F67
:102D600081E18083359610833196F182E08234963A
:102D700080E093E0918380833A96118210823296AC
:102D800082E18083359610833196F182E082349619
:102D900080EF92E091838083E256F1098EE0808398
:102DA000359610833196F182E082349682EE92E07D
:102DB000918380833A9611821082329680E18083DB
:102DC00038968FEF9FEF91838083339710833196EE
:102DD000F182E082349687EC92E0918380833A9688
:102DE00011821082329683E180833596108331966A
:102DF000F182E08234968BEA92E0918380833A9666
:102E000011821082BE968FE08083359610833196B2
:102E1000F182E082349686E992E0918380833A964B
:102E200011821082329684E080833196108261E0B4
:102E30000E949F15FE01EC50FF4F87E08083319682
:102E4000108261E00E949F15FE01EA50FF4F85E06D
:102E500080833196108261E00E949F15FE01E85048
:102E6000FF4F86E080833196108261E00E949F15BB
:102E7000FE01E95FFE4F1082319788E08083DE011A
:102E8000A450BF4F1C931297808191818D939C9386
:102E90003497108211821282138234971082118229
:102EA000128213823197108261E088E00E949F15A0
:102EB000FE01EB5EFE4F1082319789E08083DE01D8
:102EC000A65FBE4F1C931297808191818D939C9336
:102ED00034971082118212821382349710821182E9
:102EE00012821382C55FDE4F188261E089E0DF91B4
:102EF000CF911F91FF90EF900C949F15EEEFF1E0B2
:102F00001382128288EE93E0A0E0B0E08483958380
:102F1000A683B7838CE191E09183808385EC90E078
:102F20009587848784EC90E09787868780EC90E093
:102F3000918B808B81EC90E0938B828B82EC90E084
:102F4000958B848B86EC90E0978B868B118E128EFE
:102F5000138E148E87E195E00E94D01581E093E0F6
:102F60000E94D015AFEFB2E08EE291E011969C93F3
:102F70008E9310921804109217041092210410924C
:102F8000200410922304109222041092250410921F
:102F9000240410921F0410921E0410923604109202
:102FA0003504109238041092370410923A041092AB
:102FB0003904109234041092330410924B0410928E
:102FC0004A0410924D0410924C0410924F04109237
:102FD0004E0410924904109248041092600410921A
:102FE0005F041092620410926104109264041092C3
:102FF000630410925E0410925D04109275041092A6
:10300000740410927704109276041092790410924E
:103010007804109273041092720410928A04109231
:10302000890410928C0410928B0410928E041092DA
:103030008D04109288041092870410929F041092BD
:103040009E041092A1041092A0041092A304109266
:10305000A20410929D0410929C041092B404109249
:10306000B3041092B6041092B5041092B8041092F2
:10307000B7041092B2041092B1041092C9041092D5
:10308000C8041092CB041092CA041092CD0410927E
:10309000CC041092C7041092C6041092DE04109261
:1030A000DD041092E0041092DF041092E20410920A
:1030B000E1041092DC041092DB04E5ECF2E0F09302
:1030C0001D04E0931C0410921B0481E093E0909394
:1030D0001A048093190410922D0410922C04139654
:1030E0008D919C91149791838083F0933204E093A7
:1030F000310421E02093300487E193E090932F0482
:1031000080932E04109242041092410459968D919E
:103110009C915A9793838283F0934704E0934604EB
:1031200042E0409345048DE293E090934404809301
:10313000430410925704109256049F968D919C91CF
:1031400095838483F0935C04E0935B0433E03093D5
:103150005A0483E493E090935904809358041092A6
:103160006C0410926B0481EB93E090936E04809357
:103170006D0483EB92E0909371048093700410923D
:103180006F04109281041092800467EC73E07093D6
:103190008304609382049093860480938504209333
:1031A000840410929604109295046FE673E0709375
:1031B00098046093970490939B0480939A0440939F
:1031C000990445E853E05093AD044093AC049093C8
:1031D000B0048093AF043093AE0445E152E05093C5
:1031E000C0044093BF044BE953E05093C2044093A2
:1031F000C1049093C5048093C40434E03093C304A5
:103200001092D5041092D4044DED53E05093D7049E
:103210004093D6049093DA048093D90465E06093D8
:10322000D8041092EA041092E90443EF53E050935B
:10323000EC044093EB04EBE9F2E0F093EF04E0934D
:10324000EE041092ED044091F40350E0518340836A
:1032500045EF53E05093F1044093F004F093F404ED
:10326000E093F3042093F2042091F60330E03383DB
:103270002283F093F904E093F8046093F704138633
:103280001286F093FE04E093FD0426E02093FC04F4
:10329000158614862BEF33E0309300052093FF044E
:1032A000309307052093060590930A05809309053E
:1032B00027E02093080525E0E6E0F5E0A1E0B5E091
:1032C00001900D922A95E1F729E034E030930C0546
:1032D00020930B0530931305209312059093160548
:1032E0008093150588E08093140585E0E2E1F5E020
:1032F000ADE0B5E001900D928A95E1F7E7EEF2E0DE
:103300001382128215821482178216821182108211
:10331000EFEEF2E013821282158214821782168277
:1033200011821082E7EFF2E013821282158214827A
:103330001782168211821082EDECF2E01382128263
:1033400015821482178216821186108613861286C1
:103350001586148617861686118A108A11821082A5
:10336000128A138A148A158A178A168A118E108E69
:103370000895CF93DF93CDB7DEB7C854D1090FB608
:10338000F894DEBF0FBECDBF789484B5826084BD53
:1033900084B5816084BD85B5826085BD85B5816059
:1033A00085BD80916E00816080936E0010928100D7
:1033B0008091810082608093810080918100816092
:1033C0008093810080918000816080938000809153
:1033D000B10084608093B1008091B00081608093DF
:1033E000B00080917A00846080937A0080917A00A6
:1033F000826080937A0080917A00816080937A0065
:1034000080917A00806880937A001092C10061E018
:103410008CE00E94A6028EEF91E09093F2018093DF
:10342000F1018BE992E09093D0028093CF028CE07F
:1034300090E09093D8028093D70285EC92E090932D
:10344000D2028093D10284E090E09093DA028093DC
:10345000D90286ED91E09093D4028093D30286E066
:1034600090E09093DC028093DB0283EB92E09093F8
:10347000D6028093D50289E090E09093DE0280939B
:10348000DD0281E08093CD021092CE02E0910E0227
:10349000F0910F0282E08083E0910A02F0910B022A
:1034A0001082E0910C02F0910D0287E68083109269
:1034B0001602E0911202F091130286E08083E091FF
:1034C0001002F0911102808180618083E0911002EE
:1034D000F0911102808188608083E0911002F09168
:1034E0001102808180688083E0911002F0911102C6
:1034F00080818F7D80838091C20086608093C2002E
:103500008EE197E0A0E0B0E08093DF029093E002CC
:10351000A093E102B093E20288EB93E19093E6027C
:103520008093E50289EA9EE09093E4028093E302AF
:103530008DEC92E0909318048093170490E080E063
:103540000E94861490E09093D7018093D60190E07A
:1035500080E00E94A90E81E090E00E94861490E035
:103560009093A00280939F02E0911704F0911804B9
:10357000008CF18DE02D309719F082E090E00995F4
:1035800082E090E00E948614182F83E090E00E9471
:103590008614212F30E0322F2227820F932F911D86
:1035A0009093D9018093D80184E090E00E94861422
:1035B00090E09093A2028093A102E091E502F09145
:1035C000E60283E090E0099585E090E00E94861491
:1035D000182F86E090E00E948614212F30E0322FD1
:1035E0002227820F932F911D9093DB018093DA01A4
:1035F00087E090E00E948614182F88E090E00E94F7
:103600008614212F30E0322F2227820F932F911D15
:103610009093DD018093DC0189E090E00E948614A4
:1036200090E09093A4028093A302E091E502F091D0
:10363000E60284E090E009958AE090E00E9486141A
:10364000182F8BE090E00E948614212F30E0322F5B
:103650002227820F932F911D9093DF018093DE012B
:103660008BE693E00E94D9070E94730D18EE412E5D
:1036700013E0512E09E0602E712C83E0C82ED12C6E
:10368000CE0101967C0170E0A72E70E0B72E0E945B
:1036900048040091E4011091E5012091E601309188
:1036A000E701601B710B820B930B6B307105810579
:1036B000910508F429C20E9448046093E4017093C4
:1036C000E5018093E6019093E7018091E2019091FA
:1036D000E3010196B2010E94D21F9093E30180930F
:1036E000E2018091D6019091D7018035910508F0D3
:1036F00049C087E195E00E948A058DE295E00E942D
:103700008A0583E495E00E948A0589E595E00E9498
:103710008A058091F1019091F201DC01ED91FC911B
:103720000084F185E02D09958C010E94D4020115D9
:10373000110509F050C01092D5011092D40180916A
:10374000E2019091E301B3010E94D21F892B09F09D
:10375000CBC110E000E08091E9029091EA020817E5
:1037600019070CF0C1C1802F0E948708DC01539615
:103770008D909C90802F0E948708F40109950F5F1F
:103780001F4FE9CF89E194E00E94F0058EE294E0BA
:103790000E94F00583E494E00E94F00588E594E03F
:1037A0000E94F0058DE694E00E94F00582E894E026
:1037B0000E94F00587E994E00E94F0058CEA94E00D
:1037C0000E94F00581EC94E00E94F00586ED94E003
:1037D0000E94F0059ECF2091D4013091D5010217AF
:1037E0001307C9F01093D5010093D4010091DF02B3
:1037F0001091E0022091E1023091E202600F711F0E
:10380000821F931F6093D0017093D1018093D201E6
:103810009093D30194CF0091D0011091D1012091C8
:10382000D2013091D301601771078207930708F422
:1038300086CF1092D5011092D401470110E000E02C
:103840008091F1019091F201DC01ED91FC910084F5
:10385000F185E02D0995892BC1F08091F1019091BE
:10386000F201DC01ED91FC910284F385E02D0995D4
:10387000F40181934F010F5F1F4F0034110501F7D1
:103880000E9448040E9448045ACF0115110509F40A
:1038900056CF3EEF300FF7018FEF9FEF2E2F2E19EF
:1038A000231788F42191822728E0AC014170552725
:1038B00096958795452B21F041E0842740EA94278F
:1038C000215099F7EBCFEFEFFFEFEC0FFD1FE00F6B
:1038D000F11F2081FE01E00FF11F308123273227E5
:1038E00023279827892798272817390749F6E09131
:1038F000CD028981E813C4CF9A81A1E1B1E08D9115
:10390000891709F40DC181E0A831B807C1F781E03A
:103910002296EFAF2297905823969FAF2397249635
:103920008FAF249763E0CE018F5B9F4F0E942B03E4
:10393000A7CF6D8170E0762F66274E81640F711DD1
:103940002091D9023091DA02923031F0913091F524
:103950002091D7023091D80240E161157105D9F16B
:1039600046171706C0F14B8150E0542F4427FC81C5
:103970004F0F511D460F571F2417350708F4E5C098
:103980000B8110E0102F00279C81090F111D83303F
:1039900009F46BC010F5813009F459C0823009F088
:1039A0006FCF2091D1023091D2024E81B80182E0D6
:1039B00090E055C02091DB023091DC02933049F059
:1039C00030E020E040E0943041F62091DD0230917B
:1039D000DE0249E1C2CF83E09BCF853009F457C0B6
:1039E00008F44DC0863009F04BCF4091D30250917E
:1039F000D4022D813E813227232732272296EFAF32
:103A0000229723968FAF239724961FAF249725964E
:103A10000FAF259726963FAF269727962FAF27976C
:103A2000F801EE0FFF1FE40FF51F3183208366E0DE
:103A3000CE018F5B9F4F0E942B03E091E302F09138
:103A4000E402309709F41CCFC801099519CF2091E1
:103A5000CF023091D0024E81B80181E090E00E9407
:103A60008F03892B09F00CCF6ACE2091D3023091BD
:103A7000D4024E81B80183E00E94FF03F2CF20916F
:103A8000D5023091D6024E81B80184E0F5CF409145
:103A9000CF025091D0022D813E8132272327322739
:103AA0002296EFAF229723968FAF239724961FAFCE
:103AB000249725960FAF259726963FAF26972796F2
:103AC0002FAF2797F801EE0FFF1FE40FF51F31838B
:103AD000208366E0CE018F5B9F4F0E942B03E09115
:103AE000E502F091E602ADCF8091E2019091E30111
:103AF000B6010E94D21F892B39F48091E001909188
:103B0000E10199270E94D606A114B10409F4BFCDA2
:103B10000E94BF04882309F4BACD0E940000B3CDEF
:103B2000963009F42DCF953009F003CF2B8130E08A
:103B3000322F22274C81240F311D4091D702509102
:103B4000D8022417350708F41BCF82E0E1CE87EFB7
:103B500092E00E9431078FEE92E00E94310787EEDB
:103B600092E00E9431078FEF92E00E94810787E187
:103B700095E00C944907F999FECF92BD81BDF89A62
:103B8000992780B50895262FF999FECF1FBA92BDC7
:103B900081BD20BD0FB6F894FA9AF99A0FBE01962E
:103BA0000895052E97FB1EF400940E94E81D57FD12
:103BB00007D00E94031E07FC03D04EF40C94E81DAE
:103BC00050954095309521953F4F4F4F5F4F089549
:103BD00090958095709561957F4F8F4F9F4F089579
:103BE0000E94251EA59F900DB49F900DA49F800D4F
:103BF000911D11240895B7FF0C94F01D0E94F01D33
:103C0000821B930B0895A1E21A2EAA1BBB1BFD0178
:103C10000DC0AA1FBB1FEE1FFF1FA217B307E407AB
:103C2000F50720F0A21BB30BE40BF50B661F771F03
:103C3000881F991F1A9469F76095709580959095E3
:103C40009B01AC01BD01CF010895A29FB001B39FBC
:103C5000C001A39F700D811D1124911DB29F700D95
:103C6000811D1124911D08955058BB27AA270E9439
:103C70004C1E0C942B1F0E941D1F38F00E94241F05
:103C800020F039F49F3F19F426F40C941A1F0EF417
:103C9000E095E7FB0C94141FE92F0E943C1F58F39A
:103CA000BA17620773078407950720F079F4A6F521
:103CB0000C945E1F0EF4E0950B2EBA2FA02D0B0175
:103CC000B90190010C01CA01A0011124FF27591B61
:103CD00099F0593F50F4503E68F11A16F040A22F67
:103CE000232F342F4427585FF3CF469537952795D8
:103CF000A795F0405395C9F77EF41F16BA0B620BD7
:103D0000730B840BBAF09150A1F0FF0FBB1F661F1D
:103D1000771F881FC2F70EC0BA0F621F731F841F60
:103D200048F4879577956795B795F7959E3F08F086
:103D3000B0CF9395880F08F09927EE0F9795879548
:103D400008950E94A81E6894B1110C945F1F0895F5
:103D50000E94441F88F09F5798F0B92F9927B751B8
:103D6000B0F0E1F0660F771F881F991F1AF0BA951F
:103D7000C9F714C0B13091F00E945E1FB1E0089500
:103D80000C945E1F672F782F8827B85F39F0B93FF2
:103D9000CCF3869577956795B395D9F73EF49095D2
:103DA0008095709561957F4F8F4F9F4F0895E89450
:103DB00009C097FB3EF490958095709561957F4F73
:103DC0008F4F9F4F9923A9F0F92F96E9BB27939521
:103DD000F695879577956795B795F111F8CFFAF431
:103DE000BB0F11F460FF1BC06F5F7F4F8F4F9F4F62
:103DF00016C0882311F096E911C0772321F09EE8C0
:103E0000872F762F05C0662371F096E8862F70E025
:103E100060E02AF09A95660F771F881FDAF7880FFF
:103E20009695879597F9089597F99F6780E870E0D0
:103E300060E008959FEF80EC089500240A94161620
:103E4000170618060906089500240A941216130688
:103E5000140605060895092E0394000C11F4882316
:103E600052F0BB0F40F4BF2B11F460FF04C06F5F32
:103E70007F4F8F4F9F4F089557FD9058440F551F08
:103E800059F05F3F71F04795880F97FB991F61F0DC
:103E90009F3F79F087950895121613061406551F53
:103EA000F2CF4695F1DF08C0161617061806991FBF
:103EB000F1CF86957105610508940895E894BB27B4
:103EC00066277727CB0197F908950E94781F0C94F5
:103ED0002B1F0E941D1F38F00E94241F20F09523E5
:103EE00011F00C94141F0C941A1F11240C945F1FD2
:103EF0000E943C1F70F3959FC1F3950F50E0551F32
:103F0000629FF001729FBB27F00DB11D639FAA272E
:103F1000F00DB11DAA1F649F6627B00DA11D661F7D
:103F2000829F2227B00DA11D621F739FB00DA11D9E
:103F3000621F839FA00D611D221F749F3327A00D58
:103F4000611D231F849F600D211D822F762F6A2FF4
:103F500011249F5750409AF0F1F088234AF0EE0F59
:103F6000FF1FBB1F661F771F881F91505040A9F786
:103F70009E3F510580F00C94141F0C945F1F5F3F0F
:103F8000E4F3983ED4F3869577956795B795F795C2
:103F9000E7959F5FC1F7FE2B880F911D969587953A
:103FA00097F90895AA1BBB1B51E107C0AA1FBB1FAD
:103FB000A617B70710F0A61BB70B881F991F5A95B5
:103FC000A9F780959095BC01CD010895EE0FFF1FD4
:103FD0000590F491E02D09940E94251EB7FF0895E5
:103FE000821B930B08950F931F93CF93DF9382301F
:103FF000910510F482E090E0E0912F06F0913006F8
:1040000030E020E0B0E0A0E0309799F421153105D0
:1040100009F44AC0281B390B24303105D8F58A81B0
:104020009B816115710589F1FB0193838283FE01F8
:1040300011C0408151810281138148175907E0F076
:104040004817590799F4109761F012960C9312973C
:1040500013961C933296CF01DF91CF911F910F9150
:10406000089500932F0610933006F4CF21153105E3
:1040700051F04217530738F0A901DB019A01BD0145
:10408000DF01F801C1CFEF01F9CF909330068093A3
:104090002F06CDCFFE01E20FF31F819391932250A3
:1040A000310939832883D7CF20912D0630912E06F0
:1040B000232B41F4209107013091080130932E0603
:1040C00020932D062091050130910601211531051F
:1040D00041F42DB73EB74091090150910A01241BCC
:1040E000350BE0912D06F0912E06E217F307A0F4B0
:1040F0002E1B3F0B2817390778F0AC014E5F5F4F3E
:104100002417350748F04E0F5F1F50932E0640933B
:104110002D06819391939FCFF0E0E0E09CCFCF9369
:10412000DF930097E9F0FC01329713821282A0918D
:104130002F06B0913006ED0130E020E01097A1F499
:1041400020813181820F931F20912D0630912E0600
:104150002817390709F061C0F0932E06E0932D0669
:10416000DF91CF910895EA01CE17DF07E8F54A8184
:104170005B819E0141155105B1F7E901FB83EA839B
:1041800049915991C40FD51FEC17FD0761F4808147
:1041900091810296840F951FE9019983888382811A
:1041A00093819B838A83F0E0E0E012968D919C914D
:1041B00013970097B9F52D913C911197CD01029677
:1041C000820F931F20912D0630912E062817390754
:1041D00039F6309751F51092300610922F06B093B1
:1041E0002E06A0932D06BCCFD383C283408151817C
:1041F000840F951FC817D90761F44E5F5F4F888100
:104200009981480F591F518340838A819B819383F1
:1042100082832115310509F0B0CFF0933006E09389
:104220002F069ECFFD01DC01C0CF13821282D7CFB3
:1042300011E0CAEED1E004C0FE010E94E61F219603
:0A424000CB3ED107C9F7F894FFCF79
:10424A004154045404000031068000201CE803880D
:10425A00130102030405061000000000F5045504CA
:10426A0082045D05B3049104A504000000008107DF
:10427A00C0070D0A0051554555453A2063616E271E
:10428A0074207065656B206974656D2066726F6D48
:10429A002071756575653A20717565756520697354
:1042AA0020656D7074792E0051554555453A20693F
:1042BA006E73756666696369656E74206D656D6F88
:1042CA00727920746F206372656174652061206E53
:0A42DA006577206E6F64652E00000A
:00000001FF
